:020000040000FA
:060000000A128A11F82F1C
:100F3A008316031789018801831603138801831214
:100F4A0003138801861FAA2FAB2FD02F0618AE2FA6
:100F5A00AF2FB22F08108814C92F061AB52FB62F33
:100F6A00B92F08108814C92F861ABC2FBD2FC02F7D
:100F7A0008108814C92F061BC32FC42FC72F0810A7
:100F8A008814C92F08148810861CCC2FCD2FA72FA0
:100F9A0008148810A72F0618D32FD42FD72F08107C
:100FAA000815EE2F061ADA2FDB2FDE2F0810081588
:100FBA00EE2F861AE12FE22FE52F08100815EE2FE3
:100FCA00061BE82FE92FEC2F08100815EE2F08143E
:100FDA000811861CF12FF22FA72F08140811A72F2A
:100FEA000A128A110028F001F101F201F3018301CA
:060FFA000A128A119D2F6E
:00000001FF
