:060000000A128A11FC2F18
:100F8800831603138801051401308316031788009C
:100F9800831603139F131F129F12C3308312031368
:100FA8009F051F083F3940389F00831203131F1401
:100FB8001330F000F00BDE2FE12F831203139F1480
:100FC8009F18E72FE82FE42F1F101E08880006300F
:100FD800F2001330F100AD30F000F00BF12FF10BFF
:100FE800F12FF20BF12FF82FD92F0A128A110028AE
:080FF80083010A128A11C42FC3
:02400E00D420BC
:00000001FF
