:060000000A128A11FC2F18
:100F42007130831603138F008801813083120313DB
:100F520088000630F2001330F100AD30F000F00BE3
:100F6200B02FF10BB02FF20BB02FB72F8312031358
:100F72008809880A0630F2001330F100AD30F00023
:100F8200F00BC12FF10BC12FF20BC12FC82FF301B0
:100F9200F4017408803AFF0080307F02031DD32FD2
:100FA20008307302031CD62FD72FD82FA62F01305B
:100FB200F000730ADE2F0310F00DFF3E031DDC2F3D
:100FC20070088312031388000630F2001330F10018
:100FD200AD30F000F00BEB2FF10BEB2FF20BEB2F00
:100FE200F22F0130F3070318F40A0030F407CA2F76
:0E0FF2000A128A11002883010A128A11A12F07
:04400E00D420FF3F7C
:00000001FF
